{
  "_format": "hh-sol-artifact-1",
  "contractName": "SilkArbitrator",
  "sourceName": "contracts/SilkArbitrator.sol",
  "abi": [
    {
      "inputs": [
        {
          "internalType": "uint16",
          "name": "_arbitrationFeeRatio",
          "type": "uint16"
        },
        {
          "internalType": "uint256[4]",
          "name": "_timesPerPeriod",
          "type": "uint256[4]"
        }
      ],
      "stateMutability": "nonpayable",
      "type": "constructor"
    },
    {
      "anonymous": false,
      "inputs": [
        {
          "indexed": true,
          "internalType": "uint256",
          "name": "_disputeID",
          "type": "uint256"
        },
        {
          "indexed": true,
          "internalType": "contract Arbitrable",
          "name": "_arbitrable",
          "type": "address"
        }
      ],
      "name": "AppealDecision",
      "type": "event"
    },
    {
      "anonymous": false,
      "inputs": [
        {
          "indexed": true,
          "internalType": "uint256",
          "name": "_disputeID",
          "type": "uint256"
        },
        {
          "indexed": true,
          "internalType": "contract Arbitrable",
          "name": "_arbitrable",
          "type": "address"
        }
      ],
      "name": "AppealPossible",
      "type": "event"
    },
    {
      "anonymous": false,
      "inputs": [
        {
          "indexed": true,
          "internalType": "uint256",
          "name": "_disputeID",
          "type": "uint256"
        },
        {
          "indexed": true,
          "internalType": "contract Arbitrable",
          "name": "_arbitrable",
          "type": "address"
        }
      ],
      "name": "DisputeCreation",
      "type": "event"
    },
    {
      "anonymous": false,
      "inputs": [
        {
          "indexed": true,
          "internalType": "uint256",
          "name": "_disputeID",
          "type": "uint256"
        },
        {
          "indexed": false,
          "internalType": "uint256",
          "name": "winningChoice",
          "type": "uint256"
        }
      ],
      "name": "ExecuteRuling",
      "type": "event"
    },
    {
      "anonymous": false,
      "inputs": [
        {
          "indexed": true,
          "internalType": "uint256",
          "name": "_disputeID",
          "type": "uint256"
        },
        {
          "indexed": false,
          "internalType": "enum SilkArbitrator.Period",
          "name": "_period",
          "type": "uint8"
        }
      ],
      "name": "NewPeriod",
      "type": "event"
    },
    {
      "inputs": [
        {
          "internalType": "uint256",
          "name": "",
          "type": "uint256"
        }
      ],
      "name": "DisputeId2VoteCounter",
      "outputs": [
        {
          "internalType": "uint256",
          "name": "winningChoice",
          "type": "uint256"
        },
        {
          "internalType": "bool",
          "name": "tied",
          "type": "bool"
        }
      ],
      "stateMutability": "view",
      "type": "function"
    },
    {
      "inputs": [],
      "name": "MIN_ARBITRATION_FEE_RATIO",
      "outputs": [
        {
          "internalType": "uint16",
          "name": "",
          "type": "uint16"
        }
      ],
      "stateMutability": "view",
      "type": "function"
    },
    {
      "inputs": [],
      "name": "MIN_VOTES",
      "outputs": [
        {
          "internalType": "uint16",
          "name": "",
          "type": "uint16"
        }
      ],
      "stateMutability": "view",
      "type": "function"
    },
    {
      "inputs": [],
      "name": "arbitrationFeeRatio",
      "outputs": [
        {
          "internalType": "uint16",
          "name": "",
          "type": "uint16"
        }
      ],
      "stateMutability": "view",
      "type": "function"
    },
    {
      "inputs": [
        {
          "internalType": "uint256",
          "name": "_disputeID",
          "type": "uint256"
        },
        {
          "internalType": "uint256",
          "name": "_voteID",
          "type": "uint256"
        },
        {
          "internalType": "uint256",
          "name": "_choice",
          "type": "uint256"
        },
        {
          "internalType": "uint256",
          "name": "_salt",
          "type": "uint256"
        }
      ],
      "name": "castVote",
      "outputs": [],
      "stateMutability": "nonpayable",
      "type": "function"
    },
    {
      "inputs": [
        {
          "internalType": "uint256",
          "name": "_disputeID",
          "type": "uint256"
        },
        {
          "internalType": "bytes32",
          "name": "_commit",
          "type": "bytes32"
        }
      ],
      "name": "commit",
      "outputs": [
        {
          "internalType": "uint256",
          "name": "voteID",
          "type": "uint256"
        }
      ],
      "stateMutability": "nonpayable",
      "type": "function"
    },
    {
      "inputs": [
        {
          "internalType": "uint256",
          "name": "_numberOfChoices",
          "type": "uint256"
        }
      ],
      "name": "createDispute",
      "outputs": [
        {
          "internalType": "uint256",
          "name": "disputeID",
          "type": "uint256"
        }
      ],
      "stateMutability": "payable",
      "type": "function"
    },
    {
      "inputs": [
        {
          "internalType": "uint256",
          "name": "_disputeID",
          "type": "uint256"
        }
      ],
      "name": "currentRuling",
      "outputs": [
        {
          "internalType": "uint256",
          "name": "ruling",
          "type": "uint256"
        }
      ],
      "stateMutability": "view",
      "type": "function"
    },
    {
      "inputs": [],
      "name": "disputeCount",
      "outputs": [
        {
          "internalType": "uint256",
          "name": "",
          "type": "uint256"
        }
      ],
      "stateMutability": "view",
      "type": "function"
    },
    {
      "inputs": [
        {
          "internalType": "uint256",
          "name": "_disputeID",
          "type": "uint256"
        }
      ],
      "name": "disputeStatus",
      "outputs": [
        {
          "internalType": "enum Arbitrator.DisputeStatus",
          "name": "status",
          "type": "uint8"
        }
      ],
      "stateMutability": "view",
      "type": "function"
    },
    {
      "inputs": [
        {
          "internalType": "uint256",
          "name": "",
          "type": "uint256"
        }
      ],
      "name": "disputes",
      "outputs": [
        {
          "internalType": "contract Arbitrable",
          "name": "arbitrated",
          "type": "address"
        },
        {
          "internalType": "uint256",
          "name": "numberOfChoices",
          "type": "uint256"
        },
        {
          "internalType": "enum SilkArbitrator.Period",
          "name": "period",
          "type": "uint8"
        },
        {
          "internalType": "uint256",
          "name": "lastPeriodChange",
          "type": "uint256"
        },
        {
          "internalType": "uint256",
          "name": "fees",
          "type": "uint256"
        },
        {
          "internalType": "uint256",
          "name": "ruling",
          "type": "uint256"
        },
        {
          "internalType": "enum Arbitrator.DisputeStatus",
          "name": "status",
          "type": "uint8"
        },
        {
          "internalType": "bool",
          "name": "ruled",
          "type": "bool"
        }
      ],
      "stateMutability": "view",
      "type": "function"
    },
    {
      "inputs": [
        {
          "internalType": "uint256",
          "name": "_disputeID",
          "type": "uint256"
        }
      ],
      "name": "executeRuling",
      "outputs": [],
      "stateMutability": "nonpayable",
      "type": "function"
    },
    {
      "inputs": [
        {
          "internalType": "uint256",
          "name": "amount",
          "type": "uint256"
        }
      ],
      "name": "getArbtrationFee",
      "outputs": [
        {
          "internalType": "uint256",
          "name": "",
          "type": "uint256"
        }
      ],
      "stateMutability": "view",
      "type": "function"
    },
    {
      "inputs": [
        {
          "internalType": "uint256",
          "name": "_disputeID",
          "type": "uint256"
        }
      ],
      "name": "getVotedCount",
      "outputs": [
        {
          "internalType": "uint256",
          "name": "",
          "type": "uint256"
        }
      ],
      "stateMutability": "view",
      "type": "function"
    },
    {
      "inputs": [],
      "name": "owner",
      "outputs": [
        {
          "internalType": "address",
          "name": "",
          "type": "address"
        }
      ],
      "stateMutability": "view",
      "type": "function"
    },
    {
      "inputs": [
        {
          "internalType": "uint256",
          "name": "_disputeID",
          "type": "uint256"
        }
      ],
      "name": "passPeriod",
      "outputs": [],
      "stateMutability": "nonpayable",
      "type": "function"
    },
    {
      "inputs": [
        {
          "internalType": "uint16",
          "name": "_arbitrationFeeRatio",
          "type": "uint16"
        }
      ],
      "name": "setFeeRatio",
      "outputs": [],
      "stateMutability": "nonpayable",
      "type": "function"
    },
    {
      "inputs": [
        {
          "internalType": "uint256",
          "name": "",
          "type": "uint256"
        }
      ],
      "name": "timesPerPeriod",
      "outputs": [
        {
          "internalType": "uint256",
          "name": "",
          "type": "uint256"
        }
      ],
      "stateMutability": "view",
      "type": "function"
    }
  ],
  "bytecode": "0x60806040526005600860026101000a81548161ffff021916908361ffff1602179055503480156200002f57600080fd5b5060405162002a1138038062002a118339818101604052810190620000559190620002fa565b606461ffff168261ffff1611158015620000875750600860029054906101000a900461ffff1661ffff168261ffff1610155b6200009157600080fd5b81600860006101000a81548161ffff021916908361ffff160217905550806004906004620000c1929190620001c6565b5033600360006101000a81548173ffffffffffffffffffffffffffffffffffffffff021916908373ffffffffffffffffffffffffffffffffffffffff1602179055506000600160008081526020019081526020016000209050338160000160006101000a81548173ffffffffffffffffffffffffffffffffffffffff021916908373ffffffffffffffffffffffffffffffffffffffff16021790555060008160020160006101000a81548160ff02191690836003811115620001885762000187620003e1565b5b021790555060008160070160006101000a81548160ff02191690836002811115620001b857620001b7620003e1565b5b021790555050505062000493565b8260048101928215620001f8579160200282015b82811115620001f7578251825591602001919060010190620001da565b5b5090506200020791906200020b565b5090565b5b80821115620002265760008160009055506001016200020c565b5090565b6000620002416200023b846200036a565b62000341565b905080828560208602820111156200025e576200025d62000444565b5b60005b85811015620002925781620002778882620002e3565b84526020840193506020830192505060018101905062000261565b5050509392505050565b600082601f830112620002b457620002b36200043f565b5b6004620002c38482856200022a565b91505092915050565b600081519050620002dd816200045f565b92915050565b600081519050620002f48162000479565b92915050565b60008060a0838503121562000314576200031362000449565b5b60006200032485828601620002cc565b925050602062000337858286016200029c565b9150509250929050565b60006200034d62000360565b90506200035b8282620003ab565b919050565b6000604051905090565b600067ffffffffffffffff82111562000388576200038762000410565b5b602082029050919050565b600061ffff82169050919050565b6000819050919050565b620003b6826200044e565b810181811067ffffffffffffffff82111715620003d857620003d762000410565b5b80604052505050565b7f4e487b7100000000000000000000000000000000000000000000000000000000600052602160045260246000fd5b7f4e487b7100000000000000000000000000000000000000000000000000000000600052604160045260246000fd5b600080fd5b600080fd5b600080fd5b6000601f19601f8301169050919050565b6200046a8162000393565b81146200047657600080fd5b50565b6200048481620003a1565b81146200049057600080fd5b50565b61256e80620004a36000396000f3fe6080604052600436106101095760003560e01c8063564a565d116100955780639d05f2a4116100645780639d05f2a41461039e578063a103f287146103c7578063a28889e114610404578063c55cc4e41461042f578063f2f038771461046c57610109565b8063564a565d146102c8578063586780b51461030c5780638bb048751461034a5780638da5cb5b1461037357610109565b80631c6fc850116100dc5780631c6fc850146101dc57806320924696146102055780632f7e450314610242578063350326771461026d5780634ac8a5291461029857610109565b8063067369461461010e57806310f169e814610139578063115d5376146101765780631c3db16d1461019f575b600080fd5b34801561011a57600080fd5b506101236104a9565b6040516101309190611d9b565b60405180910390f35b34801561014557600080fd5b50610160600480360381019061015b9190611828565b6104ae565b60405161016d9190611be5565b60405180910390f35b34801561018257600080fd5b5061019d60048036038101906101989190611828565b61055f565b005b3480156101ab57600080fd5b506101c660048036038101906101c19190611828565b6109da565b6040516101d39190611db6565b60405180910390f35b3480156101e857600080fd5b5061020360048036038101906101fe9190611895565b610a2c565b005b34801561021157600080fd5b5061022c60048036038101906102279190611828565b610e88565b6040516102399190611db6565b60405180910390f35b34801561024e57600080fd5b50610257610ec1565b6040516102649190611d9b565b60405180910390f35b34801561027957600080fd5b50610282610ed5565b60405161028f9190611d9b565b60405180910390f35b6102b260048036038101906102ad9190611828565b610ee9565b6040516102bf9190611db6565b60405180910390f35b3480156102d457600080fd5b506102ef60048036038101906102ea9190611828565b610ff2565b604051610303989796959493929190611b67565b60405180910390f35b34801561031857600080fd5b50610333600480360381019061032e9190611828565b611081565b604051610341929190611dd1565b60405180910390f35b34801561035657600080fd5b50610371600480360381019061036c9190611828565b6110b2565b005b34801561037f57600080fd5b506103886112c3565b6040516103959190611b4c565b60405180910390f35b3480156103aa57600080fd5b506103c560048036038101906103c091906117fb565b6112e9565b005b3480156103d357600080fd5b506103ee60048036038101906103e99190611828565b61139d565b6040516103fb9190611db6565b60405180910390f35b34801561041057600080fd5b506104196113b8565b6040516104269190611db6565b60405180910390f35b34801561043b57600080fd5b5061045660048036038101906104519190611828565b6113be565b6040516104639190611db6565b60405180910390f35b34801561047857600080fd5b50610493600480360381019061048e9190611855565b611456565b6040516104a09190611db6565b60405180910390f35b600381565b600080600160008481526020019081526020016000209050600260038111156104da576104d96120da565b5b8160020160009054906101000a900460ff1660038111156104fe576104fd6120da565b5b101561050d5760009150610559565b6003808111156105205761051f6120da565b5b8160020160009054906101000a900460ff166003811115610544576105436120da565b5b10156105535760019150610558565b600291505b5b50919050565b60006001600083815260200190815260200160002090506000600381111561058a576105896120da565b5b8160020160009054906101000a900460ff1660038111156105ae576105ad6120da565b5b14156106705760048160020160009054906101000a900460ff1660038111156105da576105d96120da565b5b600481106105eb576105ea612109565b5b01548160030154426105fd9190611f15565b101561063e576040517f08c379a000000000000000000000000000000000000000000000000000000000815260040161063590611c9b565b60405180910390fd5b60018160020160006101000a81548160ff02191690836003811115610666576106656120da565b5b0217905550610984565b60016003811115610684576106836120da565b5b8160020160009054906101000a900460ff1660038111156106a8576106a76120da565b5b14156107b957600361ffff16816004018054905010156106fd576040517f08c379a00000000000000000000000000000000000000000000000000000000081526004016106f490611c7b565b60405180910390fd5b60048160020160009054906101000a900460ff166003811115610723576107226120da565b5b6004811061073457610733612109565b5b01548160030154426107469190611f15565b1015610787576040517f08c379a000000000000000000000000000000000000000000000000000000000815260040161077e90611cdb565b60405180910390fd5b60028160020160006101000a81548160ff021916908360038111156107af576107ae6120da565b5b0217905550610983565b600260038111156107cd576107cc6120da565b5b8160020160009054906101000a900460ff1660038111156107f1576107f06120da565b5b1415610909576000610802836113be565b9050600361ffff1681101561084c576040517f08c379a000000000000000000000000000000000000000000000000000000000815260040161084390611c1b565b60405180910390fd5b60048260020160009054906101000a900460ff166003811115610872576108716120da565b5b6004811061088357610882612109565b5b01548260030154426108959190611f15565b10156108d6576040517f08c379a00000000000000000000000000000000000000000000000000000000081526004016108cd90611d5b565b60405180910390fd5b60038260020160006101000a81548160ff021916908360038111156108fe576108fd6120da565b5b021790555050610982565b60038081111561091c5761091b6120da565b5b8160020160009054906101000a900460ff1660038111156109405761093f6120da565b5b1415610981576040517f08c379a000000000000000000000000000000000000000000000000000000000815260040161097890611c3b565b60405180910390fd5b5b5b5b428160030181905550817f4e6f5cf43b95303e86aee81683df63992061723a829ee012db21dad388756b918260020160009054906101000a900460ff166040516109ce9190611c00565b60405180910390a25050565b600080548211156109ea57600080fd5b60006002600084815260200190815260200160002090508060020160009054906101000a900460ff16610a21578060000154610a24565b60005b915050919050565b836002806003811115610a4257610a416120da565b5b6001600084815260200190815260200160002060020160009054906101000a900460ff166003811115610a7857610a776120da565b5b14610a8257600080fd5b600060016000888152602001908152602001600020905080600401805490508610610aac57600080fd5b80600101548511158015610ac05750600085115b610aff576040517f08c379a0000000000000000000000000000000000000000000000000000000008152600401610af690611d7b565b60405180910390fd5b3373ffffffffffffffffffffffffffffffffffffffff16816004018781548110610b2c57610b2b612109565b5b906000526020600020906004020160000160009054906101000a900473ffffffffffffffffffffffffffffffffffffffff1673ffffffffffffffffffffffffffffffffffffffff1614610bb4576040517f08c379a0000000000000000000000000000000000000000000000000000000008152600401610bab90611c5b565b60405180910390fd5b8484604051602001610bc7929190611b20565b60405160208183030381529060405280519060200120816004018781548110610bf357610bf2612109565b5b90600052602060002090600402016001015414610c45576040517f08c379a0000000000000000000000000000000000000000000000000000000008152600401610c3c90611d3b565b60405180910390fd5b806004018681548110610c5b57610c5a612109565b5b906000526020600020906004020160030160009054906101000a900460ff1615610cba576040517f08c379a0000000000000000000000000000000000000000000000000000000008152600401610cb190611cfb565b60405180910390fd5b84816004018781548110610cd157610cd0612109565b5b9060005260206000209060040201600201819055506001816004018781548110610cfe57610cfd612109565b5b906000526020600020906004020160030160006101000a81548160ff021916908315150217905550600060026000898152602001908152602001600020905060018160010160008881526020019081526020016000206000828254610d639190611e34565b925050819055508060000154861415610db0578060020160009054906101000a900460ff1615610dab5760008160020160006101000a81548160ff0219169083151502179055505b610e7e565b8060010160008260000154815260200190815260200160002054816001016000888152602001908152602001600020541415610e1f578060020160009054906101000a900460ff16610e1a5760018160020160006101000a81548160ff0219169083151502179055505b610e7d565b8060010160008260000154815260200190815260200160002054816001016000888152602001908152602001600020541115610e7c5785816000018190555060008160020160006101000a81548160ff0219169083151502179055505b5b5b5050505050505050565b6000606461ffff16600860009054906101000a900461ffff1661ffff1683610eb09190611ebb565b610eba9190611e8a565b9050919050565b600860029054906101000a900461ffff1681565b600860009054906101000a900461ffff1681565b6000805490506000600160008381526020019081526020016000209050338160000160006101000a81548173ffffffffffffffffffffffffffffffffffffffff021916908373ffffffffffffffffffffffffffffffffffffffff16021790555082816001018190555060008160020160006101000a81548160ff02191690836003811115610f7a57610f796120da565b5b0217905550348160050181905550428160030181905550600080815480929190610fa390612029565b91905055503373ffffffffffffffffffffffffffffffffffffffff16827f141dfc18aa6a56fc816f44f0e9e2f1ebc92b15ab167770e17db5b084c10ed99560405160405180910390a350919050565b60016020528060005260406000206000915090508060000160009054906101000a900473ffffffffffffffffffffffffffffffffffffffff16908060010154908060020160009054906101000a900460ff16908060030154908060050154908060060154908060070160009054906101000a900460ff16908060070160019054906101000a900460ff16905088565b60026020528060005260406000206000915090508060000154908060020160009054906101000a900460ff16905082565b8060038060038111156110c8576110c76120da565b5b6001600084815260200190815260200160002060020160009054906101000a900460ff1660038111156110fe576110fd6120da565b5b1461110857600080fd5b60006001600085815260200190815260200160002090508060070160019054906101000a900460ff1615611171576040517f08c379a000000000000000000000000000000000000000000000000000000000815260040161116890611cbb565b60405180910390fd5b60018160070160016101000a81548160ff021916908315150217905550600060026000868152602001908152602001600020905060008160020160009054906101000a900460ff166111c75781600001546111ca565b60005b905060008260010160008381526020019081526020016000205490508360000160009054906101000a900473ffffffffffffffffffffffffffffffffffffffff1673ffffffffffffffffffffffffffffffffffffffff1663311a6c5688846040518363ffffffff1660e01b8152600401611245929190611dfa565b600060405180830381600087803b15801561125f57600080fd5b505af1158015611273573d6000803e3d6000fd5b505050506112828482846116b5565b867f293247d79c2a28f5eeb805a1ede05a91ad2814fd86fa98a81b112ce79449a017836040516112b29190611db6565b60405180910390a250505050505050565b600360009054906101000a900473ffffffffffffffffffffffffffffffffffffffff1681565b600360009054906101000a900473ffffffffffffffffffffffffffffffffffffffff1673ffffffffffffffffffffffffffffffffffffffff163373ffffffffffffffffffffffffffffffffffffffff161461134357600080fd5b606461ffff168161ffff16111580156113745750600860029054906101000a900461ffff1661ffff168161ffff1610155b61137d57600080fd5b80600860006101000a81548161ffff021916908361ffff16021790555050565b600481600481106113ad57600080fd5b016000915090505481565b60005481565b6000806001600084815260200190815260200160002090506000805b826004018054905081101561144b57600083600401828154811061140157611400612109565b5b906000526020600020906004020190508060030160009054906101000a900460ff161561143757828061143390612029565b9350505b50808061144390612029565b9150506113da565b508092505050919050565b600082600180600381111561146e5761146d6120da565b5b6001600084815260200190815260200160002060020160009054906101000a900460ff1660038111156114a4576114a36120da565b5b146114ae57600080fd5b60006001600087815260200190815260200160002090506000801b8514156114d557600080fd5b60005b81600401805490508110156115b0578160040181815481106114fd576114fc612109565b5b906000526020600020906004020160000160009054906101000a900473ffffffffffffffffffffffffffffffffffffffff1673ffffffffffffffffffffffffffffffffffffffff163373ffffffffffffffffffffffffffffffffffffffff16141561159d576040517f08c379a000000000000000000000000000000000000000000000000000000000815260040161159490611d1b565b60405180910390fd5b80806115a890612029565b9150506114d8565b508060040160405180608001604052803373ffffffffffffffffffffffffffffffffffffffff1681526020018781526020016000815260200160001515815250908060018154018082558091505060019003906000526020600020906004020160009091909190915060008201518160000160006101000a81548173ffffffffffffffffffffffffffffffffffffffff021916908373ffffffffffffffffffffffffffffffffffffffff160217905550602082015181600101556040820151816002015560608201518160030160006101000a81548160ff0219169083151502179055505050600181600401805490506116aa9190611f15565b935050505092915050565b600083600501549050600084600401805490509050600084836116d89190611e8a565b905060005b828110156117b35760008760040182815481106116fd576116fc612109565b5b906000526020600020906004020190508060030160009054906101000a900460ff16801561172e5750858160020154145b1561179f578060000160009054906101000a900473ffffffffffffffffffffffffffffffffffffffff1673ffffffffffffffffffffffffffffffffffffffff166108fc849081150290604051600060405180830381858888f1935050505015801561179d573d6000803e3d6000fd5b505b5080806117ab90612029565b9150506116dd565b50505050505050565b6000813590506117cb816124f3565b92915050565b6000813590506117e08161250a565b92915050565b6000813590506117f581612521565b92915050565b60006020828403121561181157611810612138565b5b600061181f848285016117d1565b91505092915050565b60006020828403121561183e5761183d612138565b5b600061184c848285016117e6565b91505092915050565b6000806040838503121561186c5761186b612138565b5b600061187a858286016117e6565b925050602061188b858286016117bc565b9150509250929050565b600080600080608085870312156118af576118ae612138565b5b60006118bd878288016117e6565b94505060206118ce878288016117e6565b93505060406118df878288016117e6565b92505060606118f0878288016117e6565b91505092959194509250565b61190581611f49565b82525050565b61191481611f5b565b82525050565b61192381611fcf565b82525050565b61193281611fe1565b82525050565b61194181611ff3565b82525050565b6000611954603283611e23565b915061195f8261213d565b604082019050919050565b6000611977602a83611e23565b91506119828261218c565b604082019050919050565b600061199a601f83611e23565b91506119a5826121db565b602082019050919050565b60006119bd602c83611e23565b91506119c882612204565b604082019050919050565b60006119e0604483611e23565b91506119eb82612253565b606082019050919050565b6000611a03601883611e23565b9150611a0e826122c8565b602082019050919050565b6000611a26605083611e23565b9150611a31826122f1565b606082019050919050565b6000611a49601283611e23565b9150611a5482612366565b602082019050919050565b6000611a6c601083611e23565b9150611a778261238f565b602082019050919050565b6000611a8f602083611e23565b9150611a9a826123b8565b602082019050919050565b6000611ab2604a83611e23565b9150611abd826123e1565b606082019050919050565b6000611ad5605183611e23565b9150611ae082612456565b606082019050919050565b611af481611f97565b82525050565b611b0381611fc5565b82525050565b611b1a611b1582611fc5565b612072565b82525050565b6000611b2c8285611b09565b602082019150611b3c8284611b09565b6020820191508190509392505050565b6000602082019050611b6160008301846118fc565b92915050565b600061010082019050611b7d600083018b61191a565b611b8a602083018a611afa565b611b976040830189611938565b611ba46060830188611afa565b611bb16080830187611afa565b611bbe60a0830186611afa565b611bcb60c0830185611929565b611bd860e083018461190b565b9998505050505050505050565b6000602082019050611bfa6000830184611929565b92915050565b6000602082019050611c156000830184611938565b92915050565b60006020820190508181036000830152611c3481611947565b9050919050565b60006020820190508181036000830152611c548161196a565b9050919050565b60006020820190508181036000830152611c748161198d565b9050919050565b60006020820190508181036000830152611c94816119b0565b9050919050565b60006020820190508181036000830152611cb4816119d3565b9050919050565b60006020820190508181036000830152611cd4816119f6565b9050919050565b60006020820190508181036000830152611cf481611a19565b9050919050565b60006020820190508181036000830152611d1481611a3c565b9050919050565b60006020820190508181036000830152611d3481611a5f565b9050919050565b60006020820190508181036000830152611d5481611a82565b9050919050565b60006020820190508181036000830152611d7481611aa5565b9050919050565b60006020820190508181036000830152611d9481611ac8565b9050919050565b6000602082019050611db06000830184611aeb565b92915050565b6000602082019050611dcb6000830184611afa565b92915050565b6000604082019050611de66000830185611afa565b611df3602083018461190b565b9392505050565b6000604082019050611e0f6000830185611afa565b611e1c6020830184611afa565b9392505050565b600082825260208201905092915050565b6000611e3f82611fc5565b9150611e4a83611fc5565b9250827fffffffffffffffffffffffffffffffffffffffffffffffffffffffffffffffff03821115611e7f57611e7e61207c565b5b828201905092915050565b6000611e9582611fc5565b9150611ea083611fc5565b925082611eb057611eaf6120ab565b5b828204905092915050565b6000611ec682611fc5565b9150611ed183611fc5565b9250817fffffffffffffffffffffffffffffffffffffffffffffffffffffffffffffffff0483118215151615611f0a57611f0961207c565b5b828202905092915050565b6000611f2082611fc5565b9150611f2b83611fc5565b925082821015611f3e57611f3d61207c565b5b828203905092915050565b6000611f5482611fa5565b9050919050565b60008115159050919050565b6000819050919050565b6000819050611f7f826124cb565b919050565b6000819050611f92826124df565b919050565b600061ffff82169050919050565b600073ffffffffffffffffffffffffffffffffffffffff82169050919050565b6000819050919050565b6000611fda82612005565b9050919050565b6000611fec82611f71565b9050919050565b6000611ffe82611f84565b9050919050565b600061201082612017565b9050919050565b600061202282611fa5565b9050919050565b600061203482611fc5565b91507fffffffffffffffffffffffffffffffffffffffffffffffffffffffffffffffff8214156120675761206661207c565b5b600182019050919050565b6000819050919050565b7f4e487b7100000000000000000000000000000000000000000000000000000000600052601160045260246000fd5b7f4e487b7100000000000000000000000000000000000000000000000000000000600052601260045260246000fd5b7f4e487b7100000000000000000000000000000000000000000000000000000000600052602160045260246000fd5b7f4e487b7100000000000000000000000000000000000000000000000000000000600052603260045260246000fd5b600080fd5b7f546865206d696e696d756d206e756d626572206f6620766f74656420766f746560008201527f7320686173206e6f74206265656e206d65740000000000000000000000000000602082015250565b7f546865206469737075746520697320616c726561647920696e20746865206c6160008201527f737420706572696f642e00000000000000000000000000000000000000000000602082015250565b7f5468652063616c6c65722068617320746f206f776e2074686520766f74652e00600082015250565b7f546865206d696e696d756d206e756d626572206f6620766f746573206861732060008201527f6e6f74206265656e206d65740000000000000000000000000000000000000000602082015250565b7f5468652065766964656e636520706572696f642074696d6520686173206e6f7460008201527f207061737365642079657420616e64206974206973206e6f7420616e2061707060208201527f65616c2e00000000000000000000000000000000000000000000000000000000604082015250565b7f52756c696e6720616c72656164792065786563757465642e0000000000000000600082015250565b7f54686520636f6d6d697420706572696f642074696d6520686173206e6f74207060008201527f61737365642079657420616e64206e6f74206576657279206a75726f7220686160208201527f7320636f6d6d6974746564207965742e00000000000000000000000000000000604082015250565b7f566f746520616c726561647920636173742e0000000000000000000000000000600082015250565b7f616c7265616420636f6d6d697474656400000000000000000000000000000000600082015250565b7f54686520636f6d6d6974206d757374206d61746368207468652063686f696365600082015250565b7f54686520766f746520706572696f642074696d6520686173206e6f742070617360008201527f7365642079657420616e64206e6f74206576657279206a75726f72206861732060208201527f766f746564207965742e00000000000000000000000000000000000000000000604082015250565b7f5468652063686f6963652068617320746f206265206c657373207468616e206f60008201527f7220657175616c20746f20746865206e756d626572206f662063686f6963657360208201527f20666f722074686520646973707574652e000000000000000000000000000000604082015250565b600381106124dc576124db6120da565b5b50565b600481106124f0576124ef6120da565b5b50565b6124fc81611f67565b811461250757600080fd5b50565b61251381611f97565b811461251e57600080fd5b50565b61252a81611fc5565b811461253557600080fd5b5056fea2646970667358221220ef2e2d3cbdea39204b279f24a8b99ac349c3a63381a035cdb912a890cae9f51d64736f6c63430008070033",
  "linkReferences": {},
  "deployedLinkReferences": {}
}