{
  "_format": "hh-sol-artifact-1",
  "contractName": "SilkPayV1",
  "sourceName": "contracts/SilkPayV1.sol",
  "abi": [
    {
      "inputs": [
        {
          "internalType": "contract Arbitrator",
          "name": "_arbitrator",
          "type": "address"
        },
        {
          "internalType": "uint256",
          "name": "_gracePeriod",
          "type": "uint256"
        }
      ],
      "stateMutability": "nonpayable",
      "type": "constructor"
    },
    {
      "anonymous": false,
      "inputs": [
        {
          "indexed": true,
          "internalType": "address",
          "name": "arbitrator",
          "type": "address"
        },
        {
          "indexed": true,
          "internalType": "uint256",
          "name": "dispute_id",
          "type": "uint256"
        },
        {
          "indexed": true,
          "internalType": "uint256",
          "name": "PaymentID",
          "type": "uint256"
        }
      ],
      "name": "Dispute",
      "type": "event"
    },
    {
      "anonymous": false,
      "inputs": [
        {
          "indexed": true,
          "internalType": "address",
          "name": "arbitrator",
          "type": "address"
        },
        {
          "indexed": true,
          "internalType": "uint256",
          "name": "PaymentID",
          "type": "uint256"
        },
        {
          "indexed": true,
          "internalType": "address",
          "name": "submitter",
          "type": "address"
        },
        {
          "indexed": false,
          "internalType": "string",
          "name": "_evidence",
          "type": "string"
        }
      ],
      "name": "Evidence",
      "type": "event"
    },
    {
      "anonymous": false,
      "inputs": [
        {
          "indexed": false,
          "internalType": "address",
          "name": "account",
          "type": "address"
        }
      ],
      "name": "Paused",
      "type": "event"
    },
    {
      "anonymous": false,
      "inputs": [
        {
          "indexed": true,
          "internalType": "uint256",
          "name": "PaymentID",
          "type": "uint256"
        },
        {
          "indexed": true,
          "internalType": "address",
          "name": "sender",
          "type": "address"
        },
        {
          "indexed": true,
          "internalType": "address",
          "name": "recipient",
          "type": "address"
        },
        {
          "indexed": false,
          "internalType": "uint256",
          "name": "amount",
          "type": "uint256"
        }
      ],
      "name": "PayFinished",
      "type": "event"
    },
    {
      "anonymous": false,
      "inputs": [
        {
          "indexed": true,
          "internalType": "uint256",
          "name": "PaymentID",
          "type": "uint256"
        },
        {
          "indexed": true,
          "internalType": "address",
          "name": "sender",
          "type": "address"
        },
        {
          "indexed": false,
          "internalType": "bool",
          "name": "targeted",
          "type": "bool"
        },
        {
          "indexed": false,
          "internalType": "address",
          "name": "recipient",
          "type": "address"
        },
        {
          "indexed": false,
          "internalType": "bytes32",
          "name": "merkleTreeRoot",
          "type": "bytes32"
        },
        {
          "indexed": false,
          "internalType": "uint256",
          "name": "amount",
          "type": "uint256"
        },
        {
          "indexed": false,
          "internalType": "uint256",
          "name": "lockTime",
          "type": "uint256"
        }
      ],
      "name": "PaymentCreated",
      "type": "event"
    },
    {
      "anonymous": false,
      "inputs": [
        {
          "indexed": true,
          "internalType": "uint256",
          "name": "PaymentID",
          "type": "uint256"
        },
        {
          "indexed": true,
          "internalType": "address",
          "name": "recipient",
          "type": "address"
        }
      ],
      "name": "RecipientSpecify",
      "type": "event"
    },
    {
      "anonymous": false,
      "inputs": [
        {
          "indexed": true,
          "internalType": "uint256",
          "name": "PaymentID",
          "type": "uint256"
        },
        {
          "indexed": true,
          "internalType": "address",
          "name": "sender",
          "type": "address"
        },
        {
          "indexed": false,
          "internalType": "uint256",
          "name": "amount",
          "type": "uint256"
        }
      ],
      "name": "Refund",
      "type": "event"
    },
    {
      "anonymous": false,
      "inputs": [
        {
          "indexed": false,
          "internalType": "address",
          "name": "sender",
          "type": "address"
        },
        {
          "indexed": false,
          "internalType": "uint256",
          "name": "senderFee",
          "type": "uint256"
        },
        {
          "indexed": false,
          "internalType": "address",
          "name": "recipient",
          "type": "address"
        },
        {
          "indexed": false,
          "internalType": "uint256",
          "name": "recipientFee",
          "type": "uint256"
        }
      ],
      "name": "SettleFee",
      "type": "event"
    },
    {
      "anonymous": false,
      "inputs": [
        {
          "indexed": false,
          "internalType": "address",
          "name": "account",
          "type": "address"
        }
      ],
      "name": "Unpaused",
      "type": "event"
    },
    {
      "inputs": [],
      "name": "MIN_LOCK_TIME",
      "outputs": [
        {
          "internalType": "uint16",
          "name": "",
          "type": "uint16"
        }
      ],
      "stateMutability": "view",
      "type": "function"
    },
    {
      "inputs": [
        {
          "internalType": "uint256",
          "name": "",
          "type": "uint256"
        }
      ],
      "name": "PaymentIdtoDisputeId",
      "outputs": [
        {
          "internalType": "uint256",
          "name": "",
          "type": "uint256"
        }
      ],
      "stateMutability": "view",
      "type": "function"
    },
    {
      "inputs": [],
      "name": "arbitrator",
      "outputs": [
        {
          "internalType": "contract Arbitrator",
          "name": "",
          "type": "address"
        }
      ],
      "stateMutability": "view",
      "type": "function"
    },
    {
      "inputs": [
        {
          "internalType": "uint256",
          "name": "lockTime",
          "type": "uint256"
        },
        {
          "internalType": "bool",
          "name": "targeted",
          "type": "bool"
        },
        {
          "internalType": "address",
          "name": "recipient",
          "type": "address"
        },
        {
          "internalType": "bytes32",
          "name": "merkleTreeRoot",
          "type": "bytes32"
        }
      ],
      "name": "createPayment",
      "outputs": [
        {
          "internalType": "uint256",
          "name": "PaymentID",
          "type": "uint256"
        }
      ],
      "stateMutability": "payable",
      "type": "function"
    },
    {
      "inputs": [
        {
          "internalType": "uint256",
          "name": "",
          "type": "uint256"
        }
      ],
      "name": "disputeIDtoPaymentId",
      "outputs": [
        {
          "internalType": "uint256",
          "name": "",
          "type": "uint256"
        }
      ],
      "stateMutability": "view",
      "type": "function"
    },
    {
      "inputs": [
        {
          "internalType": "address",
          "name": "_recipient",
          "type": "address"
        }
      ],
      "name": "getPaymentIDsByRecipient",
      "outputs": [
        {
          "internalType": "uint256",
          "name": "",
          "type": "uint256"
        },
        {
          "internalType": "uint256[]",
          "name": "",
          "type": "uint256[]"
        }
      ],
      "stateMutability": "view",
      "type": "function"
    },
    {
      "inputs": [
        {
          "internalType": "address",
          "name": "_sender",
          "type": "address"
        }
      ],
      "name": "getPaymentIDsBySender",
      "outputs": [
        {
          "internalType": "uint256",
          "name": "",
          "type": "uint256"
        },
        {
          "internalType": "uint256[]",
          "name": "",
          "type": "uint256[]"
        }
      ],
      "stateMutability": "view",
      "type": "function"
    },
    {
      "inputs": [],
      "name": "gracePeriod",
      "outputs": [
        {
          "internalType": "uint256",
          "name": "",
          "type": "uint256"
        }
      ],
      "stateMutability": "view",
      "type": "function"
    },
    {
      "inputs": [],
      "name": "owner",
      "outputs": [
        {
          "internalType": "address",
          "name": "",
          "type": "address"
        }
      ],
      "stateMutability": "view",
      "type": "function"
    },
    {
      "inputs": [],
      "name": "pause",
      "outputs": [],
      "stateMutability": "nonpayable",
      "type": "function"
    },
    {
      "inputs": [],
      "name": "paused",
      "outputs": [
        {
          "internalType": "bool",
          "name": "",
          "type": "bool"
        }
      ],
      "stateMutability": "view",
      "type": "function"
    },
    {
      "inputs": [
        {
          "internalType": "uint256",
          "name": "PaymentID",
          "type": "uint256"
        }
      ],
      "name": "pay",
      "outputs": [],
      "stateMutability": "nonpayable",
      "type": "function"
    },
    {
      "inputs": [
        {
          "internalType": "uint256",
          "name": "",
          "type": "uint256"
        }
      ],
      "name": "payments",
      "outputs": [
        {
          "internalType": "uint8",
          "name": "paymentType",
          "type": "uint8"
        },
        {
          "internalType": "address",
          "name": "sender",
          "type": "address"
        },
        {
          "internalType": "address",
          "name": "paymentToken",
          "type": "address"
        },
        {
          "internalType": "uint256",
          "name": "amount",
          "type": "uint256"
        },
        {
          "internalType": "bool",
          "name": "targeted",
          "type": "bool"
        },
        {
          "internalType": "address",
          "name": "recipient",
          "type": "address"
        },
        {
          "internalType": "bytes32",
          "name": "merkleTreeRoot",
          "type": "bytes32"
        },
        {
          "internalType": "uint256",
          "name": "lockTime",
          "type": "uint256"
        },
        {
          "internalType": "uint256",
          "name": "startTime",
          "type": "uint256"
        },
        {
          "internalType": "enum PaymentUtils.PaymentStatus",
          "name": "status",
          "type": "uint8"
        }
      ],
      "stateMutability": "view",
      "type": "function"
    },
    {
      "inputs": [
        {
          "internalType": "uint256",
          "name": "PaymentID",
          "type": "uint256"
        },
        {
          "internalType": "bytes32[]",
          "name": "proof",
          "type": "bytes32[]"
        }
      ],
      "name": "raiseDisputeByParticipant",
      "outputs": [
        {
          "internalType": "uint256",
          "name": "dispute_id",
          "type": "uint256"
        }
      ],
      "stateMutability": "payable",
      "type": "function"
    },
    {
      "inputs": [
        {
          "internalType": "uint256",
          "name": "PaymentID",
          "type": "uint256"
        }
      ],
      "name": "raiseDisputeByRecipient",
      "outputs": [
        {
          "internalType": "uint256",
          "name": "dispute_id",
          "type": "uint256"
        }
      ],
      "stateMutability": "payable",
      "type": "function"
    },
    {
      "inputs": [
        {
          "internalType": "uint256",
          "name": "PaymentID",
          "type": "uint256"
        }
      ],
      "name": "refund",
      "outputs": [],
      "stateMutability": "nonpayable",
      "type": "function"
    },
    {
      "inputs": [
        {
          "internalType": "uint256",
          "name": "_disputeId",
          "type": "uint256"
        },
        {
          "internalType": "uint256",
          "name": "_ruling",
          "type": "uint256"
        }
      ],
      "name": "rule",
      "outputs": [],
      "stateMutability": "nonpayable",
      "type": "function"
    },
    {
      "inputs": [
        {
          "internalType": "uint256",
          "name": "PaymentID",
          "type": "uint256"
        },
        {
          "internalType": "bytes32[]",
          "name": "proof",
          "type": "bytes32[]"
        },
        {
          "internalType": "address",
          "name": "recipient",
          "type": "address"
        }
      ],
      "name": "specifyRecipient",
      "outputs": [],
      "stateMutability": "nonpayable",
      "type": "function"
    },
    {
      "inputs": [
        {
          "internalType": "uint256",
          "name": "PaymentID",
          "type": "uint256"
        },
        {
          "internalType": "string",
          "name": "_evidence",
          "type": "string"
        },
        {
          "internalType": "bytes32[]",
          "name": "proof",
          "type": "bytes32[]"
        }
      ],
      "name": "submitEvidenceByParticipant",
      "outputs": [],
      "stateMutability": "nonpayable",
      "type": "function"
    },
    {
      "inputs": [
        {
          "internalType": "uint256",
          "name": "PaymentID",
          "type": "uint256"
        },
        {
          "internalType": "string",
          "name": "_evidence",
          "type": "string"
        }
      ],
      "name": "submitEvidenceByRecipient",
      "outputs": [],
      "stateMutability": "nonpayable",
      "type": "function"
    },
    {
      "inputs": [
        {
          "internalType": "uint256",
          "name": "PaymentID",
          "type": "uint256"
        },
        {
          "internalType": "string",
          "name": "_evidence",
          "type": "string"
        }
      ],
      "name": "submitEvidenceBySender",
      "outputs": [],
      "stateMutability": "nonpayable",
      "type": "function"
    },
    {
      "inputs": [],
      "name": "unpause",
      "outputs": [],
      "stateMutability": "nonpayable",
      "type": "function"
    },
    {
      "inputs": [
        {
          "internalType": "uint256",
          "name": "PaymentID",
          "type": "uint256"
        },
        {
          "internalType": "bytes32[]",
          "name": "proof",
          "type": "bytes32[]"
        },
        {
          "internalType": "address",
          "name": "recipient",
          "type": "address"
        }
      ],
      "name": "verifyRecipient",
      "outputs": [
        {
          "internalType": "bool",
          "name": "",
          "type": "bool"
        }
      ],
      "stateMutability": "view",
      "type": "function"
    }
  ],
  "bytecode": "0x60806040523480156200001157600080fd5b5060405162003e6e38038062003e6e833981810160405281019062000037919062000110565b60008060006101000a81548160ff02191690831515021790555081600260006101000a81548173ffffffffffffffffffffffffffffffffffffffff021916908373ffffffffffffffffffffffffffffffffffffffff1602179055508060018190555033600060016101000a81548173ffffffffffffffffffffffffffffffffffffffff021916908373ffffffffffffffffffffffffffffffffffffffff1602179055505050620001e2565b600081519050620000f381620001ae565b92915050565b6000815190506200010a81620001c8565b92915050565b600080604083850312156200012a5762000129620001a9565b5b60006200013a85828601620000e2565b92505060206200014d85828601620000f9565b9150509250929050565b600062000164826200017f565b9050919050565b6000620001788262000157565b9050919050565b600073ffffffffffffffffffffffffffffffffffffffff82169050919050565b6000819050919050565b600080fd5b620001b9816200016b565b8114620001c557600080fd5b50565b620001d3816200019f565b8114620001df57600080fd5b50565b613c7c80620001f26000396000f3fe6080604052600436106101405760003560e01c80638456cb59116100b6578063b0a3ea0c1161006f578063b0a3ea0c14610446578063b16fd65014610476578063c290d691146104b3578063c48fef90146104dc578063c741b46d1461050c578063f9c3ff8b1461053557610140565b80638456cb591461032d57806387d81789146103445780638da5cb5b1461038a5780639a597293146103b55780639f36d38f146103f2578063a06db7dc1461041b57610140565b80633ff03207116101085780633ff03207146102155780635511cfb2146102405780635c975abb146102695780636cc6cde11461029457806374fab2ce146102bf578063765292c9146102ef57610140565b80630879f8b31461014557806315ca825a14610183578063278ecde1146101ac578063311a6c56146101d55780633f4ba83a146101fe575b600080fd5b34801561015157600080fd5b5061016c600480360381019061016791906128ca565b610572565b60405161017a9291906133b0565b60405180910390f35b34801561018f57600080fd5b506101aa60048036038101906101a591906129ad565b61074b565b005b3480156101b857600080fd5b506101d360048036038101906101ce91906128f7565b6109e3565b005b3480156101e157600080fd5b506101fc60048036038101906101f79190612b73565b610be0565b005b34801561020a57600080fd5b50610213610cbe565b005b34801561022157600080fd5b5061022a610d22565b604051610237919061337a565b60405180910390f35b34801561024c57600080fd5b5061026760048036038101906102629190612a83565b610d28565b005b34801561027557600080fd5b5061027e610d71565b60405161028b919061308d565b60405180910390f35b3480156102a057600080fd5b506102a9610d87565b6040516102b691906130fb565b60405180910390f35b6102d960048036038101906102d49190612a1c565b610dad565b6040516102e69190613395565b60405180910390f35b3480156102fb57600080fd5b50610316600480360381019061031191906128ca565b61116c565b6040516103249291906133b0565b60405180910390f35b34801561033957600080fd5b50610342611345565b005b34801561035057600080fd5b5061036b600480360381019061036691906128f7565b6113a9565b6040516103819a999897969594939291906133fb565b60405180910390f35b34801561039657600080fd5b5061039f611494565b6040516103ac9190612fa3565b60405180910390f35b3480156103c157600080fd5b506103dc60048036038101906103d791906128f7565b6114ba565b6040516103e99190613395565b60405180910390f35b3480156103fe57600080fd5b5061041960048036038101906104149190612ae3565b6114d2565b005b34801561042757600080fd5b5061043061151d565b60405161043d9190613395565b60405180910390f35b610460600480360381019061045b91906128f7565b611523565b60405161046d9190613395565b60405180910390f35b34801561048257600080fd5b5061049d600480360381019061049891906128f7565b611659565b6040516104aa9190613395565b60405180910390f35b3480156104bf57600080fd5b506104da60048036038101906104d591906128f7565b611671565b005b6104f660048036038101906104f19190612951565b61195b565b6040516105039190613395565b60405180910390f35b34801561051857600080fd5b50610533600480360381019061052e9190612a83565b611a4c565b005b34801561054157600080fd5b5061055c600480360381019061055791906129ad565b611a9e565b604051610569919061308d565b60405180910390f35b600060606000805b600380549050811015610622578473ffffffffffffffffffffffffffffffffffffffff16600382815481106105b2576105b1613813565b5b906000526020600020906008020160000160019054906101000a900473ffffffffffffffffffffffffffffffffffffffff1673ffffffffffffffffffffffffffffffffffffffff16141561060f57818061060b90613719565b9250505b808061061a90613719565b91505061057a565b5060008167ffffffffffffffff81111561063f5761063e613842565b5b60405190808252806020026020018201604052801561066d5781602001602082028036833780820191505090505b5090506000915060005b60038054905081101561073d578573ffffffffffffffffffffffffffffffffffffffff16600382815481106106af576106ae613813565b5b906000526020600020906008020160000160019054906101000a900473ffffffffffffffffffffffffffffffffffffffff1673ffffffffffffffffffffffffffffffffffffffff16141561072a578082848061070a90613719565b95508151811061071d5761071c613813565b5b6020026020010181815250505b808061073590613719565b915050610677565b508181935093505050915091565b600082511161078f576040517f08c379a00000000000000000000000000000000000000000000000000000000081526004016107869061333a565b60405180910390fd5b6000600384815481106107a5576107a4613813565b5b906000526020600020906008020190508060030160009054906101000a900460ff1615610807576040517f08c379a00000000000000000000000000000000000000000000000000000000081526004016107fe906131da565b60405180910390fd5b8060000160019054906101000a900473ffffffffffffffffffffffffffffffffffffffff1673ffffffffffffffffffffffffffffffffffffffff163373ffffffffffffffffffffffffffffffffffffffff1614610899576040517f08c379a00000000000000000000000000000000000000000000000000000000081526004016108909061327a565b60405180910390fd5b806005015481600601546108ad9190613532565b4211156108ef576040517f08c379a00000000000000000000000000000000000000000000000000000000081526004016108e6906132ba565b60405180910390fd5b6108fa848484611a9e565b610939576040517f08c379a00000000000000000000000000000000000000000000000000000000081526004016109309061315a565b60405180910390fd5b60018160030160006101000a81548160ff021916908315150217905550818160030160016101000a81548173ffffffffffffffffffffffffffffffffffffffff021916908373ffffffffffffffffffffffffffffffffffffffff1602179055508173ffffffffffffffffffffffffffffffffffffffff16847f42e514c844a512c11ceb4047281e2b167889996efbf0bc8eb4d6026a0f2793a560405160405180910390a350505050565b6109eb611ada565b600060038281548110610a0157610a00613813565b5b906000526020600020906008020190508060000160019054906101000a900473ffffffffffffffffffffffffffffffffffffffff1673ffffffffffffffffffffffffffffffffffffffff163373ffffffffffffffffffffffffffffffffffffffff1614610a6d57600080fd5b60006004811115610a8157610a806137e4565b5b8160070160009054906101000a900460ff166004811115610aa557610aa46137e4565b5b14610aaf57600080fd5b600081600501548260060154610ac59190613532565b905060015481610ad59190613532565b4211610ae057600080fd5b6000826002015490506000836002018190555060048360070160006101000a81548160ff02191690836004811115610b1b57610b1a6137e4565b5b02179055508260000160019054906101000a900473ffffffffffffffffffffffffffffffffffffffff1673ffffffffffffffffffffffffffffffffffffffff166108fc829081150290604051600060405180830381858888f19350505050158015610b8a573d6000803e3d6000fd5b503373ffffffffffffffffffffffffffffffffffffffff16847f21e12a7cad0da5928167e1084ea4d5fdf8d9af66657a2543a9ac76a0ca08147783604051610bd29190613395565b60405180910390a350505050565b600260009054906101000a900473ffffffffffffffffffffffffffffffffffffffff1673ffffffffffffffffffffffffffffffffffffffff163373ffffffffffffffffffffffffffffffffffffffff1614610c70576040517f08c379a0000000000000000000000000000000000000000000000000000000008152600401610c67906132da565b60405180910390fd5b600060046000848152602001908152602001600020549050600060038281548110610c9e57610c9d613813565b5b90600052602060002090600802019050610cb88184611b24565b50505050565b600060019054906101000a900473ffffffffffffffffffffffffffffffffffffffff1673ffffffffffffffffffffffffffffffffffffffff163373ffffffffffffffffffffffffffffffffffffffff1614610d1857600080fd5b610d20611f04565b565b611c2081565b600060038481548110610d3e57610d3d613813565b5b90600052602060002090600802019050610d5781611f66565b610d6081611fe1565b610d6b848484612076565b50505050565b60008060009054906101000a900460ff16905090565b600260009054906101000a900473ffffffffffffffffffffffffffffffffffffffff1681565b6000610db7611ada565b8315610e0b57600073ffffffffffffffffffffffffffffffffffffffff168373ffffffffffffffffffffffffffffffffffffffff161415610df757600080fd5b6000801b8214610e0657600080fd5b610e55565b600073ffffffffffffffffffffffffffffffffffffffff168373ffffffffffffffffffffffffffffffffffffffff1614610e4457600080fd5b6000801b821415610e5457600080fd5b5b60003411610e98576040517f08c379a0000000000000000000000000000000000000000000000000000000008152600401610e8f906131fa565b60405180910390fd5b6003604051806101400160405280600080811115610eb957610eb86137e4565b5b60ff1681526020013373ffffffffffffffffffffffffffffffffffffffff168152602001600073ffffffffffffffffffffffffffffffffffffffff16815260200134815260200186151581526020018573ffffffffffffffffffffffffffffffffffffffff16815260200184815260200187815260200142815260200160006004811115610f4a57610f496137e4565b5b815250908060018154018082558091505060019003906000526020600020906008020160009091909190915060008201518160000160006101000a81548160ff021916908360ff16021790555060208201518160000160016101000a81548173ffffffffffffffffffffffffffffffffffffffff021916908373ffffffffffffffffffffffffffffffffffffffff16021790555060408201518160010160006101000a81548173ffffffffffffffffffffffffffffffffffffffff021916908373ffffffffffffffffffffffffffffffffffffffff1602179055506060820151816002015560808201518160030160006101000a81548160ff02191690831515021790555060a08201518160030160016101000a81548173ffffffffffffffffffffffffffffffffffffffff021916908373ffffffffffffffffffffffffffffffffffffffff16021790555060c0820151816004015560e0820151816005015561010082015181600601556101208201518160070160006101000a81548160ff021916908360048111156110e1576110e06137e4565b5b021790555050503373ffffffffffffffffffffffffffffffffffffffff16600160038054905061111191906135b9565b7fc25c97047f3d92aa594f6fd0c08f449d2fd0d50efe227d1afe11f6567dd72e06868686348b6040516111489594939291906130a8565b60405180910390a3600160038054905061116291906135b9565b9050949350505050565b600060606000805b60038054905081101561121c578473ffffffffffffffffffffffffffffffffffffffff16600382815481106111ac576111ab613813565b5b906000526020600020906008020160030160019054906101000a900473ffffffffffffffffffffffffffffffffffffffff1673ffffffffffffffffffffffffffffffffffffffff16141561120957818061120590613719565b9250505b808061121490613719565b915050611174565b5060008167ffffffffffffffff81111561123957611238613842565b5b6040519080825280602002602001820160405280156112675781602001602082028036833780820191505090505b5090506000915060005b600380549050811015611337578573ffffffffffffffffffffffffffffffffffffffff16600382815481106112a9576112a8613813565b5b906000526020600020906008020160030160019054906101000a900473ffffffffffffffffffffffffffffffffffffffff1673ffffffffffffffffffffffffffffffffffffffff161415611324578082848061130490613719565b95508151811061131757611316613813565b5b6020026020010181815250505b808061132f90613719565b915050611271565b508181935093505050915091565b600060019054906101000a900473ffffffffffffffffffffffffffffffffffffffff1673ffffffffffffffffffffffffffffffffffffffff163373ffffffffffffffffffffffffffffffffffffffff161461139f57600080fd5b6113a7612105565b565b600381815481106113b957600080fd5b90600052602060002090600802016000915090508060000160009054906101000a900460ff16908060000160019054906101000a900473ffffffffffffffffffffffffffffffffffffffff16908060010160009054906101000a900473ffffffffffffffffffffffffffffffffffffffff16908060020154908060030160009054906101000a900460ff16908060030160019054906101000a900473ffffffffffffffffffffffffffffffffffffffff16908060040154908060050154908060060154908060070160009054906101000a900460ff1690508a565b600060019054906101000a900473ffffffffffffffffffffffffffffffffffffffff1681565b60056020528060005260406000206000915090505481565b6000600385815481106114e8576114e7613813565b5b9060005260206000209060080201905061150181611f66565b61150b8183612167565b611516858585612076565b5050505050565b60015481565b600061152d611ada565b60006003838154811061154357611542613813565b5b906000526020600020906008020190508060030160009054906101000a900460ff1680156115c057508060030160019054906101000a900473ffffffffffffffffffffffffffffffffffffffff1673ffffffffffffffffffffffffffffffffffffffff163373ffffffffffffffffffffffffffffffffffffffff16145b6115c957600080fd5b6115d28161221a565b91508260046000848152602001908152602001600020819055508282600260009054906101000a900473ffffffffffffffffffffffffffffffffffffffff1673ffffffffffffffffffffffffffffffffffffffff167fc21357d76c2ee05713ed6e2edb9a5f60ab1e8748c56201385df30007f774f58d60405160405180910390a450919050565b60046020528060005260406000206000915090505481565b611679611ada565b60006003828154811061168f5761168e613813565b5b90600052602060002090600802019050600060048111156116b3576116b26137e4565b5b8160070160009054906101000a900460ff1660048111156116d7576116d66137e4565b5b146116e157600080fd5b8060000160019054906101000a900473ffffffffffffffffffffffffffffffffffffffff1673ffffffffffffffffffffffffffffffffffffffff163373ffffffffffffffffffffffffffffffffffffffff1614611773576040517f08c379a000000000000000000000000000000000000000000000000000000000815260040161176a9061327a565b60405180910390fd5b806005015481600601546117879190613532565b4211156117c9576040517f08c379a00000000000000000000000000000000000000000000000000000000081526004016117c0906132ba565b60405180910390fd5b600115158160030160009054906101000a900460ff16151514611821576040517f08c379a00000000000000000000000000000000000000000000000000000000081526004016118189061331a565b60405180910390fd5b60008160020154905060038260070160006101000a81548160ff02191690836004811115611852576118516137e4565b5b0217905550600082600201819055508160030160019054906101000a900473ffffffffffffffffffffffffffffffffffffffff1673ffffffffffffffffffffffffffffffffffffffff166108fc829081150290604051600060405180830381858888f193505050501580156118cb573d6000803e3d6000fd5b508160030160019054906101000a900473ffffffffffffffffffffffffffffffffffffffff1673ffffffffffffffffffffffffffffffffffffffff163373ffffffffffffffffffffffffffffffffffffffff16847fddabc3ac6df6819be7ac6e54d0f3e5310405751d07b1080de201f722c3bcf0868460405161194e9190613395565b60405180910390a4505050565b6000611965611ada565b60006003848154811061197b5761197a613813565b5b906000526020600020906008020190508060030160009054906101000a900460ff16156119a757600080fd5b6119b2848433611a9e565b6119bb57600080fd5b6119c48161221a565b91508360046000848152602001908152602001600020819055508382600260009054906101000a900473ffffffffffffffffffffffffffffffffffffffff1673ffffffffffffffffffffffffffffffffffffffff167fc21357d76c2ee05713ed6e2edb9a5f60ab1e8748c56201385df30007f774f58d60405160405180910390a45092915050565b600060038481548110611a6257611a61613813565b5b90600052602060002090600802019050611a7b81611f66565b611a84816124e7565b611a8d8161253b565b611a98848484612076565b50505050565b60008060038581548110611ab557611ab4613813565b5b90600052602060002090600802019050611ad08185856125d0565b9150509392505050565b611ae2610d71565b15611b22576040517f08c379a0000000000000000000000000000000000000000000000000000000008152600401611b199061323a565b60405180910390fd5b565b600160ff16811480611b395750600260ff1681145b611b4257600080fd5b600160ff16811415611c4c578160000160019054906101000a900473ffffffffffffffffffffffffffffffffffffffff1673ffffffffffffffffffffffffffffffffffffffff166108fc83600201549081150290604051600060405180830381858888f19350505050158015611bbc573d6000803e3d6000fd5b507f529ceaab0f98f530714fb79dffd7cece904edec41fe30eb4959266341ea6bf558260000160019054906101000a900473ffffffffffffffffffffffffffffffffffffffff1683600201548460030160019054906101000a900473ffffffffffffffffffffffffffffffffffffffff166000604051611c3f9493929190613003565b60405180910390a1611ec9565b600260ff16811415611d56578160030160019054906101000a900473ffffffffffffffffffffffffffffffffffffffff1673ffffffffffffffffffffffffffffffffffffffff166108fc83600201549081150290604051600060405180830381858888f19350505050158015611cc6573d6000803e3d6000fd5b507f529ceaab0f98f530714fb79dffd7cece904edec41fe30eb4959266341ea6bf558260000160019054906101000a900473ffffffffffffffffffffffffffffffffffffffff1660008460030160019054906101000a900473ffffffffffffffffffffffffffffffffffffffff168560020154604051611d499493929190612fbe565b60405180910390a1611ec8565b600060028360020154611d699190613588565b90508260030160019054906101000a900473ffffffffffffffffffffffffffffffffffffffff1673ffffffffffffffffffffffffffffffffffffffff166108fc829081150290604051600060405180830381858888f19350505050158015611dd5573d6000803e3d6000fd5b508260000160019054906101000a900473ffffffffffffffffffffffffffffffffffffffff1673ffffffffffffffffffffffffffffffffffffffff166108fc829081150290604051600060405180830381858888f19350505050158015611e40573d6000803e3d6000fd5b507f529ceaab0f98f530714fb79dffd7cece904edec41fe30eb4959266341ea6bf558360000160019054906101000a900473ffffffffffffffffffffffffffffffffffffffff16828560030160019054906101000a900473ffffffffffffffffffffffffffffffffffffffff1684604051611ebe9493929190613048565b60405180910390a1505b5b6000826002018190555060028260070160006101000a81548160ff02191690836004811115611efb57611efa6137e4565b5b02179055505050565b611f0c61266d565b60008060006101000a81548160ff0219169083151502179055507f5db9ee0a495bf2e6ff9c91a7834c1ba4fdd244a5e8aa4e537bd38aeae4b073aa611f4f6126b6565b604051611f5c9190612fa3565b60405180910390a1565b60016004811115611f7a57611f796137e4565b5b8160070160009054906101000a900460ff166004811115611f9e57611f9d6137e4565b5b14611fde576040517f08c379a0000000000000000000000000000000000000000000000000000000008152600401611fd59061325a565b60405180910390fd5b50565b8060000160019054906101000a900473ffffffffffffffffffffffffffffffffffffffff1673ffffffffffffffffffffffffffffffffffffffff163373ffffffffffffffffffffffffffffffffffffffff1614612073576040517f08c379a000000000000000000000000000000000000000000000000000000000815260040161206a9061327a565b60405180910390fd5b50565b3373ffffffffffffffffffffffffffffffffffffffff1683600260009054906101000a900473ffffffffffffffffffffffffffffffffffffffff1673ffffffffffffffffffffffffffffffffffffffff167fdccf2f8b2cc26eafcd61905cba744cff4b81d14740725f6376390dc6298a6a3c85856040516120f8929190613116565b60405180910390a4505050565b61210d611ada565b60016000806101000a81548160ff0219169083151502179055507f62e78cea01bee320cd4e420270b5ea74000d11b0c9f74754ebdbfc544b05a2586121506126b6565b60405161215d9190612fa3565b60405180910390a1565b8160030160009054906101000a900460ff1615801561218d57506000801b826004015414155b6121cc576040517f08c379a00000000000000000000000000000000000000000000000000000000081526004016121c39061321a565b60405180910390fd5b6121d78282336125d0565b612216576040517f08c379a000000000000000000000000000000000000000000000000000000000815260040161220d906132fa565b60405180910390fd5b5050565b600080600481111561222f5761222e6137e4565b5b8260070160009054906101000a900460ff166004811115612253576122526137e4565b5b14612293576040517f08c379a000000000000000000000000000000000000000000000000000000000815260040161228a9061319a565b60405180910390fd5b6000826005015483600601546122a99190613532565b905080421180156122c75750600154816122c39190613532565b4211155b612306576040517f08c379a00000000000000000000000000000000000000000000000000000000081526004016122fd9061335a565b60405180910390fd5b6000600260009054906101000a900473ffffffffffffffffffffffffffffffffffffffff1673ffffffffffffffffffffffffffffffffffffffff16632092469685600201546040518263ffffffff1660e01b81526004016123679190613395565b60206040518083038186803b15801561237f57600080fd5b505afa158015612393573d6000803e3d6000fd5b505050506040513d601f19601f820116820180604052508101906123b79190612924565b9050803410156123fc576040517f08c379a00000000000000000000000000000000000000000000000000000000081526004016123f39061317a565b60405180910390fd5b6000600260009054906101000a900473ffffffffffffffffffffffffffffffffffffffff1673ffffffffffffffffffffffffffffffffffffffff16634ac8a5298360026040518363ffffffff1660e01b815260040161245b91906133e0565b6020604051808303818588803b15801561247457600080fd5b505af1158015612488573d6000803e3d6000fd5b50505050506040513d601f19601f820116820180604052508101906124ad9190612924565b905060018560070160006101000a81548160ff021916908360048111156124d7576124d66137e4565b5b0217905550809350505050919050565b8060030160009054906101000a900460ff16612538576040517f08c379a000000000000000000000000000000000000000000000000000000000815260040161252f9061329a565b60405180910390fd5b50565b8060030160019054906101000a900473ffffffffffffffffffffffffffffffffffffffff1673ffffffffffffffffffffffffffffffffffffffff163373ffffffffffffffffffffffffffffffffffffffff16146125cd576040517f08c379a00000000000000000000000000000000000000000000000000000000081526004016125c4906131ba565b60405180910390fd5b50565b600080835111612615576040517f08c379a000000000000000000000000000000000000000000000000000000000815260040161260c9061333a565b60405180910390fd5b6000801b8460040154141561262957600080fd5b60008260405160200161263c9190612f88565b604051602081830303815290604052805190602001209050612663848660040154836126be565b9150509392505050565b612675610d71565b6126b4576040517f08c379a00000000000000000000000000000000000000000000000000000000081526004016126ab9061313a565b60405180910390fd5b565b600033905090565b6000826126cb85846126d5565b1490509392505050565b60008082905060005b84518110156127205761270b828683815181106126fe576126fd613813565b5b602002602001015161272b565b9150808061271890613719565b9150506126de565b508091505092915050565b60008183106127435761273e8284612756565b61274e565b61274d8383612756565b5b905092915050565b600082600052816020526040600020905092915050565b600061278061277b846134bc565b613497565b905080838252602082019050828560208602820111156127a3576127a261387b565b5b60005b858110156127d357816127b98882612835565b8452602084019350602083019250506001810190506127a6565b5050509392505050565b6000813590506127ec81613bea565b92915050565b600082601f83011261280757612806613876565b5b813561281784826020860161276d565b91505092915050565b60008135905061282f81613c01565b92915050565b60008135905061284481613c18565b92915050565b60008083601f8401126128605761285f613876565b5b8235905067ffffffffffffffff81111561287d5761287c613871565b5b6020830191508360018202830111156128995761289861387b565b5b9250929050565b6000813590506128af81613c2f565b92915050565b6000815190506128c481613c2f565b92915050565b6000602082840312156128e0576128df613885565b5b60006128ee848285016127dd565b91505092915050565b60006020828403121561290d5761290c613885565b5b600061291b848285016128a0565b91505092915050565b60006020828403121561293a57612939613885565b5b6000612948848285016128b5565b91505092915050565b6000806040838503121561296857612967613885565b5b6000612976858286016128a0565b925050602083013567ffffffffffffffff81111561299757612996613880565b5b6129a3858286016127f2565b9150509250929050565b6000806000606084860312156129c6576129c5613885565b5b60006129d4868287016128a0565b935050602084013567ffffffffffffffff8111156129f5576129f4613880565b5b612a01868287016127f2565b9250506040612a12868287016127dd565b9150509250925092565b60008060008060808587031215612a3657612a35613885565b5b6000612a44878288016128a0565b9450506020612a5587828801612820565b9350506040612a66878288016127dd565b9250506060612a7787828801612835565b91505092959194509250565b600080600060408486031215612a9c57612a9b613885565b5b6000612aaa868287016128a0565b935050602084013567ffffffffffffffff811115612acb57612aca613880565b5b612ad78682870161284a565b92509250509250925092565b60008060008060608587031215612afd57612afc613885565b5b6000612b0b878288016128a0565b945050602085013567ffffffffffffffff811115612b2c57612b2b613880565b5b612b388782880161284a565b9350935050604085013567ffffffffffffffff811115612b5b57612b5a613880565b5b612b67878288016127f2565b91505092959194509250565b60008060408385031215612b8a57612b89613885565b5b6000612b98858286016128a0565b9250506020612ba9858286016128a0565b9150509250929050565b6000612bbf8383612f4c565b60208301905092915050565b612bd4816135ed565b82525050565b612beb612be6826135ed565b613762565b82525050565b6000612bfc826134f8565b612c068185613510565b9350612c11836134e8565b8060005b83811015612c42578151612c298882612bb3565b9750612c3483613503565b925050600181019050612c15565b5085935050505092915050565b612c58816135ff565b82525050565b612c678161360b565b82525050565b612c768161366d565b82525050565b612c858161367f565b82525050565b612c9481613691565b82525050565b6000612ca68385613521565b9350612cb38385846136d9565b612cbc8361388a565b840190509392505050565b6000612cd4601483613521565b9150612cdf826138a8565b602082019050919050565b6000612cf7602883613521565b9150612d02826138d1565b604082019050919050565b6000612d1a601d83613521565b9150612d2582613920565b602082019050919050565b6000612d3d601883613521565b9150612d4882613949565b602082019050919050565b6000612d60602083613521565b9150612d6b82613972565b602082019050919050565b6000612d83601683613521565b9150612d8e8261399b565b602082019050919050565b6000612da6601983613521565b9150612db1826139c4565b602082019050919050565b6000612dc9601183613521565b9150612dd4826139ed565b602082019050919050565b6000612dec601083613521565b9150612df782613a16565b602082019050919050565b6000612e0f601183613521565b9150612e1a82613a3f565b602082019050919050565b6000612e32601d83613521565b9150612e3d82613a68565b602082019050919050565b6000612e55600d83613521565b9150612e6082613a91565b602082019050919050565b6000612e78601983613521565b9150612e8382613aba565b602082019050919050565b6000612e9b602283613521565b9150612ea682613ae3565b604082019050919050565b6000612ebe602083613521565b9150612ec982613b32565b602082019050919050565b6000612ee1601683613521565b9150612eec82613b5b565b602082019050919050565b6000612f04601983613521565b9150612f0f82613b84565b602082019050919050565b6000612f27601783613521565b9150612f3282613bad565b602082019050919050565b612f4681613628565b82525050565b612f5581613656565b82525050565b612f6481613656565b82525050565b612f73816136c7565b82525050565b612f8281613660565b82525050565b6000612f948284612bda565b60148201915081905092915050565b6000602082019050612fb86000830184612bcb565b92915050565b6000608082019050612fd36000830187612bcb565b612fe06020830186612c8b565b612fed6040830185612bcb565b612ffa6060830184612f5b565b95945050505050565b60006080820190506130186000830187612bcb565b6130256020830186612f5b565b6130326040830185612bcb565b61303f6060830184612c8b565b95945050505050565b600060808201905061305d6000830187612bcb565b61306a6020830186612f5b565b6130776040830185612bcb565b6130846060830184612f5b565b95945050505050565b60006020820190506130a26000830184612c4f565b92915050565b600060a0820190506130bd6000830188612c4f565b6130ca6020830187612bcb565b6130d76040830186612c5e565b6130e46060830185612f5b565b6130f16080830184612f5b565b9695505050505050565b60006020820190506131106000830184612c6d565b92915050565b60006020820190508181036000830152613131818486612c9a565b90509392505050565b6000602082019050818103600083015261315381612cc7565b9050919050565b6000602082019050818103600083015261317381612cea565b9050919050565b6000602082019050818103600083015261319381612d0d565b9050919050565b600060208201905081810360008301526131b381612d30565b9050919050565b600060208201905081810360008301526131d381612d53565b9050919050565b600060208201905081810360008301526131f381612d76565b9050919050565b6000602082019050818103600083015261321381612d99565b9050919050565b6000602082019050818103600083015261323381612dbc565b9050919050565b6000602082019050818103600083015261325381612ddf565b9050919050565b6000602082019050818103600083015261327381612e02565b9050919050565b6000602082019050818103600083015261329381612e25565b9050919050565b600060208201905081810360008301526132b381612e48565b9050919050565b600060208201905081810360008301526132d381612e6b565b9050919050565b600060208201905081810360008301526132f381612e8e565b9050919050565b6000602082019050818103600083015261331381612eb1565b9050919050565b6000602082019050818103600083015261333381612ed4565b9050919050565b6000602082019050818103600083015261335381612ef7565b9050919050565b6000602082019050818103600083015261337381612f1a565b9050919050565b600060208201905061338f6000830184612f3d565b92915050565b60006020820190506133aa6000830184612f5b565b92915050565b60006040820190506133c56000830185612f5b565b81810360208301526133d78184612bf1565b90509392505050565b60006020820190506133f56000830184612f6a565b92915050565b600061014082019050613411600083018d612f79565b61341e602083018c612bcb565b61342b604083018b612bcb565b613438606083018a612f5b565b6134456080830189612c4f565b61345260a0830188612bcb565b61345f60c0830187612c5e565b61346c60e0830186612f5b565b61347a610100830185612f5b565b613488610120830184612c7c565b9b9a5050505050505050505050565b60006134a16134b2565b90506134ad82826136e8565b919050565b6000604051905090565b600067ffffffffffffffff8211156134d7576134d6613842565b5b602082029050602081019050919050565b6000819050602082019050919050565b600081519050919050565b6000602082019050919050565b600082825260208201905092915050565b600082825260208201905092915050565b600061353d82613656565b915061354883613656565b9250827fffffffffffffffffffffffffffffffffffffffffffffffffffffffffffffffff0382111561357d5761357c613786565b5b828201905092915050565b600061359382613656565b915061359e83613656565b9250826135ae576135ad6137b5565b5b828204905092915050565b60006135c482613656565b91506135cf83613656565b9250828210156135e2576135e1613786565b5b828203905092915050565b60006135f882613636565b9050919050565b60008115159050919050565b6000819050919050565b600081905061362382613bd6565b919050565b600061ffff82169050919050565b600073ffffffffffffffffffffffffffffffffffffffff82169050919050565b6000819050919050565b600060ff82169050919050565b6000613678826136a3565b9050919050565b600061368a82613615565b9050919050565b600061369c82613656565b9050919050565b60006136ae826136b5565b9050919050565b60006136c082613636565b9050919050565b60006136d282613660565b9050919050565b82818337600083830152505050565b6136f18261388a565b810181811067ffffffffffffffff821117156137105761370f613842565b5b80604052505050565b600061372482613656565b91507fffffffffffffffffffffffffffffffffffffffffffffffffffffffffffffffff82141561375757613756613786565b5b600182019050919050565b600061376d82613774565b9050919050565b600061377f8261389b565b9050919050565b7f4e487b7100000000000000000000000000000000000000000000000000000000600052601160045260246000fd5b7f4e487b7100000000000000000000000000000000000000000000000000000000600052601260045260246000fd5b7f4e487b7100000000000000000000000000000000000000000000000000000000600052602160045260246000fd5b7f4e487b7100000000000000000000000000000000000000000000000000000000600052603260045260246000fd5b7f4e487b7100000000000000000000000000000000000000000000000000000000600052604160045260246000fd5b600080fd5b600080fd5b600080fd5b600080fd5b600080fd5b6000601f19601f8301169050919050565b60008160601b9050919050565b7f5061757361626c653a206e6f7420706175736564000000000000000000000000600082015250565b7f726563697069656e74206973206e6f7420696e636c7564656420696e2074686560008201527f207061796d656e74000000000000000000000000000000000000000000000000602082015250565b7f6172626974726174696f6e20666565206973206e6f7420656e6f756768000000600082015250565b7f7374617475732073686f756c64206265206c6f636b696e670000000000000000600082015250565b7f5468652063616c6c6572206d7573742062652074686520726563697069656e74600082015250565b7f726563697069656e742069732073706563696669656400000000000000000000600082015250565b7f616d6f756e742073686f756c64206e6f74206265207a65726f00000000000000600082015250565b7f6f6e6c79206e6f74207461726765746564000000000000000000000000000000600082015250565b7f5061757361626c653a2070617573656400000000000000000000000000000000600082015250565b7f6f6e6c7920696e20612064697370757465000000000000000000000000000000600082015250565b7f5468652063616c6c6572206d757374206265207468652073656e646572000000600082015250565b7f6f6e6c7920746172676574656400000000000000000000000000000000000000600082015250565b7f6e6f7420696e20746865206c6f636b2d757020706572696f6400000000000000600082015250565b7f5468652063616c6c6572206d757374206265207468652061726269747261746f60008201527f722e000000000000000000000000000000000000000000000000000000000000602082015250565b7f5468652063616c6c65722073686f756c64206265207061727469636970616e74600082015250565b7f6e6f20726563697069656e742073706563696669656400000000000000000000600082015250565b7f70726f6f662073686f756c64206e6f7420626520656d70747900000000000000600082015250565b7f6e6f7420647572696e6720677261636520706572696f64000000000000000000600082015250565b60058110613be757613be66137e4565b5b50565b613bf3816135ed565b8114613bfe57600080fd5b50565b613c0a816135ff565b8114613c1557600080fd5b50565b613c218161360b565b8114613c2c57600080fd5b50565b613c3881613656565b8114613c4357600080fd5b5056fea2646970667358221220481f5a80a752c3c300ca1352ef62d77835f57eb5bda5dc615d1951f37277e28964736f6c63430008070033",
  "linkReferences": {},
  "deployedLinkReferences": {}
}